:100000000C9434000C9446000C9446000C9446006A
:100010000C9446000C9446000C9446000C94460048
:100020000C9446000C9446000C9446000C94460038
:100030000C9446000C9446000C9446000C94460028
:100040000C9446000C9446000C9446000C94460018
:100050000C9446000C9446000C9446000C94460008
:100060000C9446000C94460011241FBECFEFD8E03C
:10007000DEBFCDBF21E0A0E0B1E001C01D92A830FD
:10008000B207E1F70E94B6000C942E010C94000018
:10009000000020E012C095B19F7D95B90000882333
:1000A00024F495B1986095B903C095B1977F95B93F
:1000B00095B1906295B92F5F880F283060F308954D
:1000C000CF93C62F95B1906195B90E9448008C2FAF
:1000D0000E94480085B18F7E85B9000085B180619E
:1000E00085B9CF91089584B1886384B960E089E0CF
:1000F0000E94600067E08BE00E9460006FE08AE091
:100100000E94600060E08FE00E94600061E08CE08F
:100110000E9460000895883040F4E82FF0E0E0503D
:10012000FF4F60838F5F0E9460000895803120F44C
:10013000682F8AE00E9460000895CF93C0E012C04B
:100140008C2F90E0FC01E050FF4F2081222349F0EA
:10015000FC01E050FF4F108260E081E08C0F0E94B4
:100160006000CF5FC83060F3CF9108950E947300A4
:100170008AE00E9496006EEF80E00E948B008FE381
:100180009CE90197F1F700C000000E949D0060EB20
:1001900080E00E948B008FE39CE90197F1F700C09B
:1001A00000000E949D006DEE80E00E948B008FE3B6
:1001B0009CE90197F1F700C000000E949D0069EFE3
:1001C00080E00E948B008FE39CE90197F1F700C06B
:1001D00000000E949D0063EB80E00E948B008FE393
:1001E0009CE90197F1F700C000000E949D006BEDB3
:1001F00080E00E948B008FE39CE90197F1F700C03B
:1002000000000E949D006FED80E00E948B008FE354
:100210009CE90197F1F700C000000E949D0060EF8B
:1002200080E00E948B008FE39CE90197F1F700C00A
:1002300000000E949D006FEF80E00E948B008FE322
:100240009CE90197F1F700C000000E949D006BEF50
:1002500080E00E948B0080E090E00895F894FFCF4A
:00000001FF
